:0300000002016C8E
:0C016C00787FE4F6D8FD7581130201B322
:1002740002120000020C0000020E0000020A00003C
:08028400020800000210000056
:100016007594FFE4F593D288D2A8D28AD2AAD2AF39
:10002600E50F450E7061E50D450C7006750A027503
:100036000B58E50D6401450C7006750A01750B2C0D
:10004600E50D6402450C7004F50AF50BE4F512F5AE
:1000560013C3E513950BE50A6480F8E512648098EE
:100066005002D281C3E513950BE50A6480F8E512C8
:100076006480984002C2810513E51370020512B42C
:1000860058CFE512B402CAE50F6401450E7061E56A
:100096000D450C7006750A02750B58E50D64014591
:1000A6000C7006750A01750B2CE50D6402450C7083
:1000B60004F50AF50BE4F512F513C3E513950BE504
:1000C6000A6480F8E5126480985002D280C3E51372
:1000D600950BE50A6480F8E5126480984002C280B8
:1000E6000513E51370020512B458CFE512B402CA1F
:1000F600E50F6402450E6003020026E50D450C700F
:1001060006750A02750B58E50D6401450C700675F7
:100116000A01750B2CE50D6402450C7004F50AF511
:100126000BE4F512F513C3E5139458E512648094B5
:10013600824003020026C3E513950BE50A6480F8A6
:10014600E5126480985002D282C3E513950BE50A46
:100156006480F8E5126480984002C2820513E513B4
:0601660070C4051280C008
:030013000201F8EF
:1001F800C0E0C0D020B332E51145107005F5107588
:100208001101E51164014510701F050FE50F70021B
:10021800050ED39402E50E648094804006750E00A6
:0E022800750F00751000751100D0D0D0E032B7
:03000300020236C0
:10023600C0E0C0D020B232E50945087005F5087562
:100246000901E50964014508701F050DE50D7002F9
:10025600050CD39402E50C648094804006750C006E
:0E026600750D00750800750900D0D0D0E0328B
:10017800020016E493A3F8E493A34003F68001F287
:1001880008DFF48029E493A3F85407240CC8C33388
:10019800C4540F4420C8834004F456800146F6DF57
:1001A800E4800B0102040810204080900274E47E71
:1001B800019360BCA3FF543F30E509541FFEE4934C
:1001C800A360010ECF54C025E060A840B8E493A313
:1001D800FAE493A3F8E493A3C8C582C8CAC583CA3E
:1001E800F0A3C8C582C8CAC583CADFE9DEE780BEF6
:01028C000071
:00000001FF
